:100000000C9438000C9455000C9455000C94550039
:100010000C9455000C9455000C9455000C9455000C
:100020000C9455000C9455000C9455000C945500FC
:100030000C94D9020C9455000C9455000C94550066
:100040000C9455000C9455000C9455000C945500DC
:100050000C9455000C9455000C9455000C945500CC
:100060000C9455000C9455000C9455000C945500BC
:1000700011241FBECFEFD4E0DEBFCDBF11E0A0E062
:10008000B1E0E0EDF8E002C005900D92A030B107BC
:10009000D9F721E0A0E0B1E001C01D92AB30B2077A
:1000A000E1F70E9488010C9466040C940000CF9341
:1000B000DF93CDB7DEB788E290E028E230E0F901C7
:1000C00020812063FC01208380E390E020E330E086
:1000D000F90120812064FC0120830000DF91CF9191
:1000E0000895CF93DF93CDB7DEB789E290E029E2A0
:1000F00030E0F90120812061FC01208389E290E059
:1001000029E230E0F90120812F7EFC0120830000EC
:10011000DF91CF910895CF93DF93CDB7DEB781E321
:1001200090E021E330E0F90120812064FC0120838C
:1001300081E390E021E330E0F90120812F7BFC0195
:1001400020830000DF91CF910895CF93DF931F921A
:10015000CDB7DEB789838981282F30E081E090E038
:1001600002C0880F991F2A95E2F7982F809100010D
:10017000892B80930001809100010E94E300000020
:100180000F90DF91CF910895CF93DF931F92CDB75A
:10019000DEB789838981282F30E081E090E002C0BA
:1001A000880F991F2A95E2F7809590910001892385
:1001B00080930001809100010E94E30000000F90F5
:1001C000DF91CF910895CF93DF9300D0CDB7DEB705
:1001D0008A8319821EC08A81882354F489E290E0C0
:1001E00029E230E0F90120812062FC01208309C06E
:1001F00089E290E029E230E0F90120812F7DFC01C5
:1002000020830E9471008A81880F8A8389818F5F91
:10021000898389818830F8F20E948B0000000F905A
:100220000F90DF91CF910895CF93DF93CDB7DEB7D5
:1002300082E390E022E330E0F90120812460FC01B8
:10024000208382E390E022E330E0F9012081226004
:10025000FC01208382E390E022E330E0F901208179
:100260002160FC01208380E390E020E330E0F9018D
:1002700020812B7FFC01208382E390E022E330E0A9
:10028000F90120812460FC01208381E390E021E3D7
:1002900030E0F90120812460FC01208380E390E0BC
:1002A00020E330E0F90120812062FC01208381E31A
:1002B00090E021E330E0F90120812F7DFC012083D3
:1002C00080E390E020E330E0F90120812E7FFC0103
:1002D000208388E290E028E230E0F901208122606A
:1002E000FC01208389E290E029E230E0F9012081DD
:1002F0002D7FFC0120838AE290E02AE230E0F901C0
:1003000020812460FC0120830000DF91CF910895BB
:10031000CF93DF93CDB7DEB76C970FB6F894DEBFFF
:100320000FBECDBF0E9414010E94570080E00E94C2
:10033000E30080E00E94A50081E00E94A50080E02B
:100340000E94A50082E00E94A50088E090E00E9443
:100350001F0383E290E023E230E0F9012081246072
:10036000FC01208384E290E024E230E0F901208166
:10037000FC01208383E290E023E230E0F901208158
:100380002068FC0120830E94B30278941092080137
:1003900083E00E94A50080E090E0AAE7B4E48983AE
:1003A0009A83AB83BC8320E030E04AE753E4698161
:1003B0007A818B819C810E94F103DC01CB018B8BC4
:1003C0009C8BAD8BBE8B20E030E040E85FE36B8917
:1003D0007C898D899E890E94430388232CF481E0C7
:1003E00090E0988F8F8B3FC020E03FEF4FE757E4BE
:1003F0006B897C898D899E890E94EC0318164CF5C7
:1004000020E030E040E251E469817A818B819C8177
:100410000E94F103DC01CB01BC01CD010E94480325
:10042000DC01CB01988F8F8B0FC089E190E09A8F10
:10043000898F898D9A8D0197F1F79A8F898F8F898E
:10044000988D0197988F8F8B8F89988D892B69F75D
:1004500014C06B897C898D899E890E944803DC01C8
:10046000CB01988F8F8B8F89988D9C8F8B8F8B8DE5
:100470009C8D0197F1F79C8F8B8F83E00E94C400C5
:1004800080E090E0AAE7B4E48D839E83AF83B887D1
:1004900020E030E04AE753E46D817E818F819885CA
:1004A0000E94F103DC01CB0189879A87AB87BC8767
:1004B00020E030E040E85FE369857A858B859C85A4
:1004C0000E94430388232CF481E090E09E878D876F
:1004D0003FC020E03FEF4FE757E469857A858B8581
:1004E0009C850E94EC0318164CF520E030E040E2B9
:1004F00051E46D817E818F8198850E94F103DC013A
:10050000CB01BC01CD010E944803DC01CB019E87D9
:100510008D870FC089E190E0988B8F878F859889B0
:100520000197F1F7988B8F878D859E8501979E8720
:100530008D878D859E85892B69F714C069857A859D
:100540008B859C850E944803DC01CB019E878D87AB
:100550008D859E859A8B898B89899A890197F1F778
:100560009A8B898B15CFCF93DF93CDB7DEB78AE314
:1005700090E02AE330E0F9012081FC0120838AE346
:1005800090E02AE330E0F90120812560FC0120831E
:1005900089E390E0FC0110828AE590E02AE530E0F2
:1005A000F90120812260FC0120830000DF91CF91BE
:1005B00008951F920F9200905F000F9211248F9365
:1005C0009F93EF93FF93CF93DF93CDB7DEB789E38C
:1005D00090E0FC01108280910901882349F080910C
:1005E00006019091070101969093070180930601FF
:1005F00080910501882349F08091030190910401C5
:100600000196909304018093030180910A0188234D
:1006100049F08091010190910201019690930201AD
:10062000809301010000DF91CF91FF91EF919F91A5
:100630008F910F9000925F000F901F901895CF93AD
:10064000DF9300D0CDB7DEB79A83898385E790E04A
:1006500029813A81232F3327FC01208384E790E00E
:100660002981FC01208388E790E028E1FC012083B8
:1006700089E790E022E0FC01208300000F900F90BA
:10068000DF91CF9108950E94770308F481E00895E7
:100690000E94CB0388F09F5798F0B92F9927B75144
:1006A000B0F0E1F0660F771F881F991F1AF0BA9516
:1006B000C9F714C0B13091F00E94E503B1E008958C
:1006C0000C94E503672F782F8827B85F39F0B93F7E
:1006D000CCF3869577956795B395D9F73EF49095C9
:1006E0008095709561957F4F8F4F9F4F0895990F1B
:1006F0000008550FAA0BE0E8FEEF16161706E807EC
:10070000F907C0F012161306E407F50798F0621B0C
:10071000730B840B950B39F40A2661F0232B242BE1
:10072000252B21F408950A2609F4A140A6958FEF00
:10073000811D811D089597F99F6780E870E060E052
:1007400008959FEF80EC089500240A94161617066A
:1007500018060906089500240A94121613061406B2
:1007600005060895092E0394000C11F4882352F015
:10077000BB0F40F4BF2B11F460FF04C06F5F7F4FCD
:100780008F4F9F4F089557FD9058440F551F59F0B4
:100790005F3F71F04795880F97FB991F61F09F3F6E
:1007A00079F087950895121613061406551FF2CF97
:1007B0004695F1DF08C0161617061806991FF1CFE7
:1007C00086957105610508940895E894BB2766270E
:1007D0007727CB0197F908950E94770308F48FEFEC
:1007E00008950E9403040C94B2030E94A40338F0FD
:1007F0000E94AB0320F0952311F00C949B030C9402
:10080000A1030C94E6030E94C30378F39923C9F370
:100810005523B9F3950F50E0551FAA27EE27FF2760
:10082000BB2700240894679520F4E20FF31FB41F40
:100830000A1E220F331F441FAA1F6695A9F777953A
:1008400030F4F30FB41F0A1E121E08F46395330F21
:10085000441FAA1F221F769599F7879520F4B40F9D
:100860000A1E121E631F440FAA1F221F331F8695E4
:10087000A9F7862F712D602D11249F5750409AF0B3
:10088000F1F088234AF0EE0FFF1FBB1F661F771F92
:10089000881F91505040A9F79E3F510580F00C945D
:1008A0009B030C94E6035F3FE4F3983ED4F38695F4
:1008B00077956795B795F795E7959F5FC1F7FE2BFD
:1008C000880F911D9695879597F90895F894FFCF15
:00000001FF
